{
  "transactions": [
    {
      "hash": "0x22473642a08c4597423b35b17bf362be355ad740925f5f7a29ce5243987dd656",
      "transactionType": "CALL",
      "contractName": null,
      "contractAddress": "0x67a69975b5da4518346080428a901bce31a65009",
      "function": "mintNft(string)",
      "arguments": [
        "\"ipfs://bafybeig37ioir76s7mg5oobetncojcm3c3hxasyd4rvid4jqhy4gkaheg4/?filename=0-PUG.json\""
      ],
      "transaction": {
        "from": "0x50130d5ddeaa1be65fccb5b2e1578f98d7d232c2",
        "to": "0x67a69975b5da4518346080428a901bce31a65009",
        "gas": "0x3d623",
        "value": "0x0",
        "input": "0xda86f4a900000000000000000000000000000000000000000000000000000000000000200000000000000000000000000000000000000000000000000000000000000057697066733a2f2f62616679626569673337696f6972373673376d67356f6f6265746e636f6a636d3363336878617379643472766964346a71687934676b61686567342f3f66696c656e616d653d302d5055472e6a736f6e000000000000000000",
        "nonce": "0x9",
        "chainId": "0xaa36a7"
      },
      "additionalContracts": [],
      "isFixedGasLimit": false
    }
  ],
  "receipts": [
    {
      "status": "0x1",
      "cumulativeGasUsed": "0xbcf3a3",
      "logs": [
        {
          "address": "0x67a69975b5da4518346080428a901bce31a65009",
          "topics": [
            "0xddf252ad1be2c89b69c2b068fc378daa952ba7f163c4a11628f55a4df523b3ef",
            "0x0000000000000000000000000000000000000000000000000000000000000000",
            "0x00000000000000000000000050130d5ddeaa1be65fccb5b2e1578f98d7d232c2",
            "0x0000000000000000000000000000000000000000000000000000000000000000"
          ],
          "data": "0x",
          "blockHash": "0x4c73caec4bfbbf19fb8e8b3c138ae3d8085b9beed22c6a3f56397e1f827fce5a",
          "blockNumber": "0x63c220",
          "transactionHash": "0x22473642a08c4597423b35b17bf362be355ad740925f5f7a29ce5243987dd656",
          "transactionIndex": "0x40",
          "logIndex": "0x64",
          "removed": false
        }
      ],
      "logsBloom": "0x00000000000000000000000000000000000000000000000000000000000000000000000000000000000000000000000000000000000000000040000800000000000000000000000000000008000000000000000000400000000000000001000000000000020000000000000000000800000000000000000000000010000000000000000000000000000000000000000000000000000000000000000000000000000000000000000000000000000000000000000000000000000800000000000000000002000000200000000000000000000000000000000000000000000020000000000000000000000000000000000000000000000000000000000000000000",
      "type": "0x2",
      "transactionHash": "0x22473642a08c4597423b35b17bf362be355ad740925f5f7a29ce5243987dd656",
      "transactionIndex": "0x40",
      "blockHash": "0x4c73caec4bfbbf19fb8e8b3c138ae3d8085b9beed22c6a3f56397e1f827fce5a",
      "blockNumber": "0x63c220",
      "gasUsed": "0x2c70e",
      "effectiveGasPrice": "0x1770f313",
      "from": "0x50130d5ddeaa1be65fccb5b2e1578f98d7d232c2",
      "to": "0x67a69975b5da4518346080428a901bce31a65009",
      "contractAddress": null
    }
  ],
  "libraries": [],
  "pending": [],
  "returns": {},
  "timestamp": 1724170566,
  "chain": 11155111,
  "commit": "3172f8b"
}